16:30:24.056143 IP 104.238.138.91.38388 > 192.168.1.5.63206: tcp 0
	0x0000:  784f 434c 5365 0c2a 8601 4f46 0800 4500
	0x0010:  0040 6d3f 4000 3406 2482 68ee 8a5b c0a8
	0x0020:  0105 95f4 f6e6 d9ce f8d0 03b7 6e7b b010
	0x0030:  0107 6618 0000 0101 080a 910e 9e6b 0d8c
	0x0040:  3b3b 0101 050a 03b7 6979 03b7 69b9
16:30:24.056145 IP 104.238.138.91.38388 > 192.168.1.5.63206: tcp 0
	0x0000:  784f 434c 5365 0c2a 8601 4f46 0800 4500
	0x0010:  0040 6d40 4000 3406 2481 68ee 8a5b c0a8
	0x0020:  0105 95f4 f6e6 d9ce f8d0 03b7 6e7b b010
	0x0030:  0107 5f98 0000 0101 080a 910e 9e6b 0d8c
	0x0040:  3c63 0101 050a 03b7 6a0f 03b7 6e7b
16:30:24.056679 IP 104.238.138.91.38388 > 192.168.1.5.63206: tcp 0
	0x0000:  784f 434c 5365 0c2a 8601 4f46 0800 4500
	0x0010:  0034 6d41 4000 3406 248c 68ee 8a5b c0a8
	0x0020:  0105 95f4 f6e6 d9ce f8d0 03b7 6ec1 8010
	0x0030:  0107 7560 0000 0101 080a 910e 9e6b 0d8c
	0x0040:  3c65
16:30:24.056681 IP 104.238.138.91.38388 > 192.168.1.5.63206: tcp 0
	0x0000:  784f 434c 5365 0c2a 8601 4f46 0800 4500
	0x0010:  0040 6d42 4000 3406 247f 68ee 8a5b c0a8
	0x0020:  0105 95f4 f6e6 d9ce f8d0 03b7 6ec1 b010
	0x0030:  0107 5f50 0000 0101 080a 910e 9e6b 0d8c
	0x0040:  3c65 0101 050a 03b7 6a0f 03b7 6e7b
16:30:24.197988 IP 192.168.1.5.64060 > 223.166.152.106.443: tcp 358
	0x0000:  0c2a 8601 4f46 784f 434c 5365 0800 4500
	0x0010:  018e 0000 4000 4006 ffab c0a8 0105 dfa6
	0x0020:  986a fa3c 01bb 5def 97db cb11 731e 5018
	0x0030:  1000 9258 0000 17f1 0301 61a3 261c 2bdc
	0x0040:  397a 6eda fab3 21cc 6aa1 a515 bbfa 7bc4
	0x0050:  01be 28e8 ff95 0d71 ea7a 6a98 bc5f 0285
	0x0060:  a130 875c 2db4 3614 2aed 3969 6e91 3371
	0x0070:  43c9 e2eb e81b c268 57d5 557e cbce 867e
	0x0080:  da2b d5dc fcad 5ebd cee5 fa05 89e8 3143
	0x0090:  db49 4cc9 16c2 62db 047c 93ba afbd d41e
	0x00a0:  2fcb ff66 2849 4522 e191 3c71 7612 db09
	0x00b0:  4940 2a47 f9ed 5f98 5e43 c191 c146 3410
	0x00c0:  10b9 0b89 67cb 9c34 b110 1995 7bb0 d635
	0x00d0:  eb0a 5c74 23e8 e9ee 2bc0 9a8a 4eab 3778
	0x00e0:  c980 37da 4675 e0da 83bb 8ce9 aba5 2a37
	0x00f0:  b5a4 45d6 f3f8 a2f9 b1a1 d40d fa20 932b
	0x0100:  a636 c748 a43d 95bc 2e0a 3d93 5b9d ae12
	0x0110:  dc3c 5040 1b2d f8d0 5770 3e48 220b 27ce
	0x0120:  cfa5 c3a9 4db9 b4b1 35e5 f686 f4c2 0095
	0x0130:  8495 2c4a 3594 7440 6639 aa41 d586 e267
	0x0140:  53f0 7ded ab40 533e fd81 3929 92d0 b849
	0x0150:  79c4 44c2 d080 38ed 7ee9 d92e ba4f b69b
	0x0160:  f792 4d57 542b 686a 4c18 af95 6878 0a40
	0x0170:  5c87 3bcb 6b5f 39ce 2f8b 6f20 f7d4 fb07
	0x0180:  9c15 b80f 70aa 04a8 c0a6 77e4 f0e8 c30e
	0x0190:  7d48 4bf7 0d38 60ab 3762 ebe9
16:30:24.250544 IP 223.166.152.106.443 > 192.168.1.5.64060: tcp 84
	0x0000:  784f 434c 5365 0c2a 8601 4f46 0800 4500
	0x0010:  007c 4d4e 4000 3506 be6f dfa6 986a c0a8
	0x0020:  0105 01bb fa3c cb11 731e 5def 9941 5018
	0x0030:  02d0 a5e6 0000 17f1 0300 4fbc b268 0c38
	0x0040:  d075 e35f 9572 1742 dc17 91c1 afc9 e57f
	0x0050:  69f9 db0c dc27 e64b 3064 80f5 1bab 6ec1
	0x0060:  c336 92f8 abe9 6fa2 1904 27d7 85b7 6edf
	0x0070:  8e40 fbbd e45e 74e2 545b c3f3 500f f930
	0x0080:  1a50 9112 1101 934f 8fbe
16:30:24.250599 IP 192.168.1.5.64060 > 223.166.152.106.443: tcp 0
	0x0000:  0c2a 8601 4f46 784f 434c 5365 0800 4500
	0x0010:  0028 0000 4000 4006 0112 c0a8 0105 dfa6
	0x0020:  986a fa3c 01bb 5def 9941 cb11 7372 5010
	0x0030:  0ffe 346b 0000
16:30:24.254177 IP 192.168.1.5.64060 > 223.166.152.106.443: tcp 294
	0x0000:  0c2a 8601 4f46 784f 434c 5365 0800 4500
	0x0010:  014e 0000 4000 4006 ffeb c0a8 0105 dfa6
	0x0020:  986a fa3c 01bb 5def 9941 cb11 7372 5018
	0x0030:  1000 7048 0000 17f1 0301 2111 86f6 c86b
	0x0040:  6d79 50cb 162f 9d39 ac2c 3360 b117 01e5
	0x0050:  f131 2c31 4dc2 6e50 ca0c f789 4aa8 c922
	0x0060:  b257 9b32 c510 1e2d 9a6a e2eb 9806 411f
	0x0070:  ab90 f03b 818c 2bae f2af 2216 e075 3dad
	0x0080:  f8a4 f650 31c3 b6d9 3734 378b c7ff db6e
	0x0090:  bb03 b572 74b7 f79a 5a78 a8b8 024b 9790
	0x00a0:  9a46 b9f9 8530 f073 e9bb 42b0 aaee 2b8e
	0x00b0:  7f32 bc87 1f34 75b6 5dc2 2c4c 6c4e b0af
	0x00c0:  c10a 9c02 6389 5058 7ec1 b6cb 24e2 84f7
	0x00d0:  3f6c 2973 df5c d0ad db48 a8e7 defd 34ed
	0x00e0:  b68b ba6c 0e08 8b17 3787 deeb acbe 7b2b
	0x00f0:  89c6 548c 19a8 4f28 a8aa cecb 8ec6 7b88
	0x0100:  75ee d3a2 ecb1 b8c1 5ab2 7e37 5020 315c
	0x0110:  3da0 5f39 e87b 21c3 d1e0 e69e ec05 ebc0
	0x0120:  0363 dea9 0076 5686 6705 ed30 be5f c670
	0x0130:  10d6 f2eb edb8 3d8b 6fe2 d002 6570 f399
	0x0140:  a14c 7086 55a2 d335 9157 86b2 9acd 7a9b
	0x0150:  5cf8 2bdd ca52 4358 fecc ce3d
16:30:24.288925 IP 223.166.152.106.443 > 192.168.1.5.64060: tcp 262
	0x0000:  784f 434c 5365 0c2a 8601 4f46 0800 4500
	0x0010:  012e 4d4f 4000 3506 bdbc dfa6 986a c0a8
	0x0020:  0105 01bb fa3c cb11 7372 5def 9a67 5018
	0x0030:  02d0 1007 0000 17f1 0301 01e4 42eb 2571
	0x0040:  d317 da50 d54f 9644 9921 e24b 03df bab3
	0x0050:  6770 6bde 45a9 15d9 cadd 9647 8d96 a521
	0x0060:  74f6 6135 9cc6 7afd 7713 1e6e 1cc3 f257
	0x0070:  fa34 2819 546f 557b a3f1 0e33 5a30 04fd
	0x0080:  c168 0086 7bb0 9dc6 2630 a017 a5bc 93d5
	0x0090:  34b4 0d88 72f0 0fce 1d44 6c4e 5338 bdd6
	0x00a0:  61df 718c f1d7 cd00 c687 c458 17d1 f6dd
	0x00b0:  cf64 fa0e 63ae cc76 ca2b 3b3b edc2 f36c
	0x00c0:  2491 4a46 ed8b 29d7 fe5c e473 5d25 a1b8
	0x00d0:  1949 71b3 b940 676d ce26 7ec1 d419 1863
	0x00e0:  9eea fe5e ea6b 0742 7eed ce37 f5f2 176c
	0x00f0:  c5fe 9b34 cf8b 58b8 7068 b5e0 7eea 4f68
	0x0100:  bfe4 e145 1f42 51a9 22b5 f459 a038 da62
	0x0110:  baf9 7a70 f5f4 dbe8 a4ff 20b8 5302 36cd
	0x0120:  0eb4 9b78 cd6d a6e3 7875 1169 b5f7 a901
	0x0130:  5635 b56e 1652 8c38 2448 54a2
16:30:24.288975 IP 192.168.1.5.64060 > 223.166.152.106.443: tcp 0
	0x0000:  0c2a 8601 4f46 784f 434c 5365 0800 4500
	0x0010:  0028 0000 4000 4006 0112 c0a8 0105 dfa6
	0x0020:  986a fa3c 01bb 5def 9a67 cb11 7478 5010
	0x0030:  0ffb 3242 0000
16:30:26.818338 IP 192.168.1.6.52527 > 239.255.255.250.1900: UDP, length 167
	0x0000:  0100 5e7f fffa fc18 3c40 0c75 0800 4500
	0x0010:  00c3 ae24 0000 0111 595d c0a8 0106 efff
	0x0020:  fffa cd2f 076c 00af 5cc0 4d2d 5345 4152
	0x0030:  4348 202a 2048 5454 502f 312e 310d 0a48
	0x0040:  4f53 543a 2032 3339 2e32 3535 2e32 3535
	0x0050:  2e32 3530 3a31 3930 300d 0a4d 414e 3a20
	0x0060:  2273 7364 703a 6469 7363 6f76 6572 220d
	0x0070:  0a4d 583a 2033 0d0a 5354 3a20 7572 6e3a
	0x0080:  7363 6865 6d61 732d 7570 6e70 2d6f 7267
	0x0090:  3a73 6572 7669 6365 3a41 5654 7261 6e73
	0x00a0:  706f 7274 3a31 0d0a 5553 4552 2d41 4745
	0x00b0:  4e54 3a20 694f 5320 5550 6e50 2f31 2e31
	0x00c0:  2042 494c 4942 494c 492f 312e 300d 0a0d
	0x00d0:  0a
16:30:27.803482 IP 192.168.1.5.51126 > 104.238.138.91.38388: tcp 23
	0x0000:  0c2a 8601 4f46 784f 434c 5365 0800 4500
	0x0010:  004b 0000 4000 4006 85b6 c0a8 0105 68ee
	0x0020:  8a5b c7b6 95f4 0f7f 109f ea27 6cad 8018
	0x0030:  0800 24a3 0000 0101 080a 0d8c 4c23 910d
	0x0040:  eaaa dd13 107d dd2c 32e8 081a 5e5a e4ba
	0x0050:  6083 e49f 1c60 f5a4 4b
16:30:28.047007 IP 104.238.138.91.38388 > 192.168.1.5.51126: tcp 0
	0x0000:  784f 434c 5365 0c2a 8601 4f46 0800 4500
	0x0010:  0034 b64d 4000 3406 db7f 68ee 8a5b c0a8
	0x0020:  0105 95f4 c7b6 ea27 6cad 0f7f 10b6 8010
	0x0030:  0229 51ec 0000 0101 080a 910e ae3d 0d8c
	0x0040:  4c23
16:30:28.763952 IP 192.168.1.6.52527 > 239.255.255.250.1900: UDP, length 167
	0x0000:  0100 5e7f fffa fc18 3c40 0c75 0800 4500
	0x0010:  00c3 f074 0000 0111 170d c0a8 0106 efff
	0x0020:  fffa cd2f 076c 00af 5cc0 4d2d 5345 4152
	0x0030:  4348 202a 2048 5454 502f 312e 310d 0a48
	0x0040:  4f53 543a 2032 3339 2e32 3535 2e32 3535
	0x0050:  2e32 3530 3a31 3930 300d 0a4d 414e 3a20
	0x0060:  2273 7364 703a 6469 7363 6f76 6572 220d
	0x0070:  0a4d 583a 2033 0d0a 5354 3a20 7572 6e3a
	0x0080:  7363 6865 6d61 732d 7570 6e70 2d6f 7267
	0x0090:  3a73 6572 7669 6365 3a41 5654 7261 6e73
	0x00a0:  706f 7274 3a31 0d0a 5553 4552 2d41 4745
	0x00b0:  4e54 3a20 694f 5320 5550 6e50 2f31 2e31
	0x00c0:  2042 494c 4942 494c 492f 312e 300d 0a0d
	0x00d0:  0a
16:30:29.286920 ARP, Request who-has 192.168.1.5 tell 192.168.1.1, length 28
	0x0000:  784f 434c 5365 0c2a 8601 4f46 0806 0001
	0x0010:  0800 0604 0001 0c2a 8601 4f46 c0a8 0101
	0x0020:  0000 0000 0000 c0a8 0105
16:30:29.286933 ARP, Reply 192.168.1.5 is-at 78:4f:43:4c:53:65, length 28
	0x0000:  0c2a 8601 4f46 784f 434c 5365 0806 0001
	0x0010:  0800 0604 0002 784f 434c 5365 c0a8 0105
	0x0020:  0c2a 8601 4f46 c0a8 0101
16:30:30.811899 IP 192.168.1.6.52527 > 239.255.255.250.1900: UDP, length 167
	0x0000:  0100 5e7f fffa fc18 3c40 0c75 0800 4500
	0x0010:  00c3 e728 0000 0111 2059 c0a8 0106 efff
	0x0020:  fffa cd2f 076c 00af 5cc0 4d2d 5345 4152
	0x0030:  4348 202a 2048 5454 502f 312e 310d 0a48
	0x0040:  4f53 543a 2032 3339 2e32 3535 2e32 3535
	0x0050:  2e32 3530 3a31 3930 300d 0a4d 414e 3a20
	0x0060:  2273 7364 703a 6469 7363 6f76 6572 220d
	0x0070:  0a4d 583a 2033 0d0a 5354 3a20 7572 6e3a
	0x0080:  7363 6865 6d61 732d 7570 6e70 2d6f 7267
	0x0090:  3a73 6572 7669 6365 3a41 5654 7261 6e73
	0x00a0:  706f 7274 3a31 0d0a 5553 4552 2d41 4745
	0x00b0:  4e54 3a20 694f 5320 5550 6e50 2f31 2e31
	0x00c0:  2042 494c 4942 494c 492f 312e 300d 0a0d
	0x00d0:  0a
16:30:32.654776 IP 104.238.138.91.38388 > 192.168.1.5.61723: tcp 53
	0x0000:  784f 434c 5365 0c2a 8601 4f46 0800 4500
	0x0010:  0069 f699 4000 3406 9afe 68ee 8a5b c0a8
	0x0020:  0105 95f4 f11b 2faf bc0c 9b9f ffd3 8018
	0x0030:  0139 42c9 0000 0101 080a 910e bff1 0d8c
	0x0040:  016b ec48 3089 6491 743b 73b8 d32f f419
	0x0050:  a06b 2ac4 963c cdd8 597a 6b57 61e9 566c
	0x0060:  8336 de1b 27eb c767 95e5 56ef b21a 2526
	0x0070:  9894 e767 138a 8a
16:30:32.654822 IP 192.168.1.5.61723 > 104.238.138.91.38388: tcp 0
	0x0000:  0c2a 8601 4f46 784f 434c 5365 0800 4500
	0x0010:  0034 0000 4000 4006 85cd c0a8 0105 68ee
	0x0020:  8a5b f11b 95f4 9b9f ffd3 2faf bc41 8010
	0x0030:  07ff edbd 0000 0101 080a 0d8c 5f08 910e
	0x0040:  bff1
16:30:32.734209 IP 192.168.1.6.52527 > 239.255.255.250.1900: UDP, length 167
	0x0000:  0100 5e7f fffa fc18 3c40 0c75 0800 4500
	0x0010:  00c3 03bd 0000 0111 03c5 c0a8 0106 efff
	0x0020:  fffa cd2f 076c 00af 5cc0 4d2d 5345 4152
	0x0030:  4348 202a 2048 5454 502f 312e 310d 0a48
	0x0040:  4f53 543a 2032 3339 2e32 3535 2e32 3535
	0x0050:  2e32 3530 3a31 3930 300d 0a4d 414e 3a20
	0x0060:  2273 7364 703a 6469 7363 6f76 6572 220d
	0x0070:  0a4d 583a 2033 0d0a 5354 3a20 7572 6e3a
	0x0080:  7363 6865 6d61 732d 7570 6e70 2d6f 7267
	0x0090:  3a73 6572 7669 6365 3a41 5654 7261 6e73
	0x00a0:  706f 7274 3a31 0d0a 5553 4552 2d41 4745
	0x00b0:  4e54 3a20 694f 5320 5550 6e50 2f31 2e31
	0x00c0:  2042 494c 4942 494c 492f 312e 300d 0a0d
	0x00d0:  0a
16:30:34.805563 IP 192.168.1.6.52527 > 239.255.255.250.1900: UDP, length 167
	0x0000:  0100 5e7f fffa fc18 3c40 0c75 0800 4500
	0x0010:  00c3 8e60 0000 0111 7921 c0a8 0106 efff
	0x0020:  fffa cd2f 076c 00af 5cc0 4d2d 5345 4152
	0x0030:  4348 202a 2048 5454 502f 312e 310d 0a48
	0x0040:  4f53 543a 2032 3339 2e32 3535 2e32 3535
	0x0050:  2e32 3530 3a31 3930 300d 0a4d 414e 3a20
	0x0060:  2273 7364 703a 6469 7363 6f76 6572 220d
	0x0070:  0a4d 583a 2033 0d0a 5354 3a20 7572 6e3a
	0x0080:  7363 6865 6d61 732d 7570 6e70 2d6f 7267
	0x0090:  3a73 6572 7669 6365 3a41 5654 7261 6e73
	0x00a0:  706f 7274 3a31 0d0a 5553 4552 2d41 4745
	0x00b0:  4e54 3a20 694f 5320 5550 6e50 2f31 2e31
	0x00c0:  2042 494c 4942 494c 492f 312e 300d 0a0d
	0x00d0:  0a
16:30:35.728986 IP 125.39.133.143.8080 > 192.168.1.5.63980: tcp 183
	0x0000:  784f 434c 5365 0c2a 8601 4f46 0800 4500
	0x0010:  00df 86c9 4000 3706 f7eb 7d27 858f c0a8
	0x0020:  0105 1f90 f9ec b287 a824 a705 7c5f 5018
	0x0030:  00fb db98 0000 0000 00b7 0000 000d 0100
	0x0040:  0000 000d 3335 3138 3032 3534 333c b3c3
	0x0050:  c302 9fe9 ac39 7880 7683 d5a8 322f 67a7
	0x0060:  1c7e c6ac dd14 2c76 bb55 7315 b337 8d0c
	0x0070:  8749 c8df 98ac 4f8f 7e8e d87d e38d 1c6d
	0x0080:  d07d f48e 0c2c 98ca c911 b9fe 8278 104e
	0x0090:  c6f0 507f 039a 0197 ac81 a524 e794 f718
	0x00a0:  808e f5ce 79f0 415d 6ad9 181e 2564 87e6
	0x00b0:  f1c6 073f 2763 2083 8952 d21c d4b8 bc7e
	0x00c0:  48a0 76ec 3b8f d7e8 7a49 4ea3 18e8 a4f9
	0x00d0:  1206 45f3 d7d2 b8a3 9df8 f20e 9b17 6ca7
	0x00e0:  ed43 e0e3 602b 196f 3a2a 6028 53
16:30:35.729043 IP 192.168.1.5.63980 > 125.39.133.143.8080: tcp 0
	0x0000:  0c2a 8601 4f46 784f 434c 5365 0800 4500
	0x0010:  0028 0000 4000 4006 766c c0a8 0105 7d27
	0x0020:  858f f9ec 1f90 a705 7c5f b287 a8db 5010
	0x0030:  0ffd 432e 0000
16:30:36.751215 IP 192.168.1.6.52527 > 239.255.255.250.1900: UDP, length 167
	0x0000:  0100 5e7f fffa fc18 3c40 0c75 0800 4500
	0x0010:  00c3 2778 0000 0111 e009 c0a8 0106 efff
	0x0020:  fffa cd2f 076c 00af 5cc0 4d2d 5345 4152
	0x0030:  4348 202a 2048 5454 502f 312e 310d 0a48
	0x0040:  4f53 543a 2032 3339 2e32 3535 2e32 3535
	0x0050:  2e32 3530 3a31 3930 300d 0a4d 414e 3a20
	0x0060:  2273 7364 703a 6469 7363 6f76 6572 220d
	0x0070:  0a4d 583a 2033 0d0a 5354 3a20 7572 6e3a
	0x0080:  7363 6865 6d61 732d 7570 6e70 2d6f 7267
	0x0090:  3a73 6572 7669 6365 3a41 5654 7261 6e73
	0x00a0:  706f 7274 3a31 0d0a 5553 4552 2d41 4745
	0x00b0:  4e54 3a20 694f 5320 5550 6e50 2f31 2e31
	0x00c0:  2042 494c 4942 494c 492f 312e 300d 0a0d
	0x00d0:  0a
16:30:38.799088 IP 192.168.1.6.52527 > 239.255.255.250.1900: UDP, length 167
	0x0000:  0100 5e7f fffa fc18 3c40 0c75 0800 4500
	0x0010:  00c3 4d88 0000 0111 b9f9 c0a8 0106 efff
	0x0020:  fffa cd2f 076c 00af 5cc0 4d2d 5345 4152
	0x0030:  4348 202a 2048 5454 502f 312e 310d 0a48
	0x0040:  4f53 543a 2032 3339 2e32 3535 2e32 3535
	0x0050:  2e32 3530 3a31 3930 300d 0a4d 414e 3a20
	0x0060:  2273 7364 703a 6469 7363 6f76 6572 220d
	0x0070:  0a4d 583a 2033 0d0a 5354 3a20 7572 6e3a
	0x0080:  7363 6865 6d61 732d 7570 6e70 2d6f 7267
	0x0090:  3a73 6572 7669 6365 3a41 5654 7261 6e73
	0x00a0:  706f 7274 3a31 0d0a 5553 4552 2d41 4745
	0x00b0:  4e54 3a20 694f 5320 5550 6e50 2f31 2e31
	0x00c0:  2042 494c 4942 494c 492f 312e 300d 0a0d
	0x00d0:  0a
16:30:40.847142 IP 192.168.1.6.52527 > 239.255.255.250.1900: UDP, length 167
	0x0000:  0100 5e7f fffa fc18 3c40 0c75 0800 4500
	0x0010:  00c3 b5f5 0000 0111 518c c0a8 0106 efff
	0x0020:  fffa cd2f 076c 00af 5cc0 4d2d 5345 4152
	0x0030:  4348 202a 2048 5454 502f 312e 310d 0a48
	0x0040:  4f53 543a 2032 3339 2e32 3535 2e32 3535
	0x0050:  2e32 3530 3a31 3930 300d 0a4d 414e 3a20
	0x0060:  2273 7364 703a 6469 7363 6f76 6572 220d
	0x0070:  0a4d 583a 2033 0d0a 5354 3a20 7572 6e3a
	0x0080:  7363 6865 6d61 732d 7570 6e70 2d6f 7267
	0x0090:  3a73 6572 7669 6365 3a41 5654 7261 6e73
	0x00a0:  706f 7274 3a31 0d0a 5553 4552 2d41 4745
	0x00b0:  4e54 3a20 694f 5320 5550 6e50 2f31 2e31
	0x00c0:  2042 494c 4942 494c 492f 312e 300d 0a0d
	0x00d0:  0a
16:30:41.375640 IP6 fe80::c05f:2278:4010:39e8 > ff02::16: HBH ICMP6, multicast listener report v2, 1 group record(s), length 28
	0x0000:  3333 0000 0016 001c 4281 9c68 86dd 6000
	0x0010:  0000 0024 0001 fe80 0000 0000 0000 c05f
	0x0020:  2278 4010 39e8 ff02 0000 0000 0000 0000
	0x0030:  0000 0000 0016 3a00 0502 0000 0100 8f00
	0x0040:  1437 0000 0001 0300 0000 ff02 0000 0000
	0x0050:  0000 0000 0000 0001 0003
16:30:41.375655 IP6 fe80::c05f:2278:4010:39e8 > ff02::16: HBH ICMP6, multicast listener report v2, 1 group record(s), length 28
	0x0000:  3333 0000 0016 001c 4281 9c68 86dd 6000
	0x0010:  0000 0024 0001 fe80 0000 0000 0000 c05f
	0x0020:  2278 4010 39e8 ff02 0000 0000 0000 0000
	0x0030:  0000 0000 0016 3a00 0502 0000 0100 8f00
	0x0040:  1437 0000 0001 0300 0000 ff02 0000 0000
	0x0050:  0000 0000 0000 0001 0003
16:30:41.375667 IP 10.211.55.7 > 224.0.0.22: igmp
	0x0000:  0100 5e00 0016 001c 4281 9c68 0800 4600
	0x0010:  0028 6c3d 0000 0102 96a2 0ad3 3707 e000
	0x0020:  0016 9404 0000 2200 fa01 0000 0001 0300
	0x0030:  0000 e000 00fc
16:30:41.375686 IP 10.211.55.7 > 224.0.0.22: igmp
	0x0000:  0100 5e00 0016 001c 4281 9c68 0800 4600
	0x0010:  0028 6c3d 0000 0102 96a2 0ad3 3707 e000
	0x0020:  0016 9404 0000 2200 fa01 0000 0001 0300
	0x0030:  0000 e000 00fc
16:30:41.381781 IP6 fe80::c05f:2278:4010:39e8 > ff02::16: HBH ICMP6, multicast listener report v2, 1 group record(s), length 28
	0x0000:  3333 0000 0016 001c 4281 9c68 86dd 6000
	0x0010:  0000 0024 0001 fe80 0000 0000 0000 c05f
	0x0020:  2278 4010 39e8 ff02 0000 0000 0000 0000
	0x0030:  0000 0000 0016 3a00 0502 0000 0100 8f00
	0x0040:  1337 0000 0001 0400 0000 ff02 0000 0000
	0x0050:  0000 0000 0000 0001 0003
16:30:41.381787 IP6 fe80::c05f:2278:4010:39e8 > ff02::16: HBH ICMP6, multicast listener report v2, 1 group record(s), length 28
	0x0000:  3333 0000 0016 001c 4281 9c68 86dd 6000
	0x0010:  0000 0024 0001 fe80 0000 0000 0000 c05f
	0x0020:  2278 4010 39e8 ff02 0000 0000 0000 0000
	0x0030:  0000 0000 0016 3a00 0502 0000 0100 8f00
	0x0040:  1337 0000 0001 0400 0000 ff02 0000 0000
	0x0050:  0000 0000 0000 0001 0003
16:30:41.381853 IP 10.211.55.7 > 224.0.0.22: igmp
	0x0000:  0100 5e00 0016 001c 4281 9c68 0800 4600
	0x0010:  0028 6c3e 0000 0102 96a1 0ad3 3707 e000
	0x0020:  0016 9404 0000 2200 f901 0000 0001 0400
	0x0030:  0000 e000 00fc
16:30:41.381858 IP 10.211.55.7 > 224.0.0.22: igmp
	0x0000:  0100 5e00 0016 001c 4281 9c68 0800 4600
	0x0010:  0028 6c3e 0000 0102 96a1 0ad3 3707 e000
	0x0020:  0016 9404 0000 2200 f901 0000 0001 0400
	0x0030:  0000 e000 00fc
16:30:41.382766 IP6 fe80::c05f:2278:4010:39e8 > ff02::16: HBH ICMP6, multicast listener report v2, 1 group record(s), length 28
	0x0000:  3333 0000 0016 001c 4281 9c68 86dd 6000
	0x0010:  0000 0024 0001 fe80 0000 0000 0000 c05f
	0x0020:  2278 4010 39e8 ff02 0000 0000 0000 0000
	0x0030:  0000 0000 0016 3a00 0502 0000 0100 8f00
	0x0040:  1437 0000 0001 0300 0000 ff02 0000 0000
	0x0050:  0000 0000 0000 0001 0003
16:30:41.382773 IP6 fe80::c05f:2278:4010:39e8 > ff02::16: HBH ICMP6, multicast listener report v2, 1 group record(s), length 28
	0x0000:  3333 0000 0016 001c 4281 9c68 86dd 6000
	0x0010:  0000 0024 0001 fe80 0000 0000 0000 c05f
	0x0020:  2278 4010 39e8 ff02 0000 0000 0000 0000
	0x0030:  0000 0000 0016 3a00 0502 0000 0100 8f00
	0x0040:  1437 0000 0001 0300 0000 ff02 0000 0000
	0x0050:  0000 0000 0000 0001 0003
16:30:41.382777 IP 10.211.55.7 > 224.0.0.22: igmp
	0x0000:  0100 5e00 0016 001c 4281 9c68 0800 4600
	0x0010:  0028 6c3f 0000 0102 96a0 0ad3 3707 e000
	0x0020:  0016 9404 0000 2200 fa01 0000 0001 0300
	0x0030:  0000 e000 00fc
16:30:41.382780 IP 10.211.55.7 > 224.0.0.22: igmp
	0x0000:  0100 5e00 0016 001c 4281 9c68 0800 4600
	0x0010:  0028 6c3f 0000 0102 96a0 0ad3 3707 e000
	0x0020:  0016 9404 0000 2200 fa01 0000 0001 0300
	0x0030:  0000 e000 00fc
16:30:41.382906 IP6 fe80::c05f:2278:4010:39e8 > ff02::16: HBH ICMP6, multicast listener report v2, 1 group record(s), length 28
	0x0000:  3333 0000 0016 001c 4281 9c68 86dd 6000
	0x0010:  0000 0024 0001 fe80 0000 0000 0000 c05f
	0x0020:  2278 4010 39e8 ff02 0000 0000 0000 0000
	0x0030:  0000 0000 0016 3a00 0502 0000 0100 8f00
	0x0040:  1337 0000 0001 0400 0000 ff02 0000 0000
	0x0050:  0000 0000 0000 0001 0003
16:30:41.382914 IP6 fe80::c05f:2278:4010:39e8 > ff02::16: HBH ICMP6, multicast listener report v2, 1 group record(s), length 28
	0x0000:  3333 0000 0016 001c 4281 9c68 86dd 6000
	0x0010:  0000 0024 0001 fe80 0000 0000 0000 c05f
	0x0020:  2278 4010 39e8 ff02 0000 0000 0000 0000
	0x0030:  0000 0000 0016 3a00 0502 0000 0100 8f00
	0x0040:  1337 0000 0001 0400 0000 ff02 0000 0000
	0x0050:  0000 0000 0000 0001 0003
16:30:41.383007 IP 10.211.55.7 > 224.0.0.22: igmp
	0x0000:  0100 5e00 0016 001c 4281 9c68 0800 4600
	0x0010:  0028 6c40 0000 0102 969f 0ad3 3707 e000
	0x0020:  0016 9404 0000 2200 f901 0000 0001 0400
	0x0030:  0000 e000 00fc
16:30:41.383013 IP 10.211.55.7 > 224.0.0.22: igmp
	0x0000:  0100 5e00 0016 001c 4281 9c68 0800 4600
	0x0010:  0028 6c40 0000 0102 969f 0ad3 3707 e000
	0x0020:  0016 9404 0000 2200 f901 0000 0001 0400
	0x0030:  0000 e000 00fc
16:30:41.384012 IP6 fe80::c05f:2278:4010:39e8.52993 > ff02::1:3.5355: UDP, length 33
	0x0000:  3333 0001 0003 001c 4281 9c68 86dd 6000
	0x0010:  0000 0029 1101 fe80 0000 0000 0000 c05f
	0x0020:  2278 4010 39e8 ff02 0000 0000 0000 0000
	0x0030:  0000 0001 0003 cf01 14eb 0029 c24d 16ac
	0x0040:  0000 0001 0000 0000 0000 0f44 4553 4b54
	0x0050:  4f50 2d4f 4334 3856 5046 0000 ff00 01
16:30:41.384017 IP6 fe80::c05f:2278:4010:39e8.52993 > ff02::1:3.5355: UDP, length 33
	0x0000:  3333 0001 0003 001c 4281 9c68 86dd 6000
	0x0010:  0000 0029 1101 fe80 0000 0000 0000 c05f
	0x0020:  2278 4010 39e8 ff02 0000 0000 0000 0000
	0x0030:  0000 0001 0003 cf01 14eb 0029 c24d 16ac
	0x0040:  0000 0001 0000 0000 0000 0f44 4553 4b54
	0x0050:  4f50 2d4f 4334 3856 5046 0000 ff00 01
16:30:41.384121 IP 10.211.55.7.52993 > 224.0.0.252.5355: UDP, length 33
	0x0000:  0100 5e00 00fc 001c 4281 9c68 0800 4500
	0x0010:  003d 5060 0000 0111 467a 0ad3 3707 e000
	0x0020:  00fc cf01 14eb 0029 f9ce 16ac 0000 0001
	0x0030:  0000 0000 0000 0f44 4553 4b54 4f50 2d4f
	0x0040:  4334 3856 5046 0000 ff00 01
16:30:41.384129 IP 10.211.55.7.52993 > 224.0.0.252.5355: UDP, length 33
	0x0000:  0100 5e00 00fc 001c 4281 9c68 0800 4500
	0x0010:  003d 5060 0000 0111 467a 0ad3 3707 e000
	0x0020:  00fc cf01 14eb 0029 f9ce 16ac 0000 0001
	0x0030:  0000 0000 0000 0f44 4553 4b54 4f50 2d4f
	0x0040:  4334 3856 5046 0000 ff00 01
16:30:41.384225 IP 192.168.1.5.52512 > 224.0.0.252.5355: UDP, length 33
	0x0000:  0100 5e00 00fc 784f 434c 5365 0800 4500
	0x0010:  003d cf12 0000 0111 47f4 c0a8 0105 e000
	0x0020:  00fc cd20 14eb 0029 7bdc 16ac 0000 0001
	0x0030:  0000 0000 0000 0f44 4553 4b54 4f50 2d4f
	0x0040:  4334 3856 5046 0000 ff00 01
16:30:41.442406 IP 10.211.55.7 > 224.0.0.22: igmp
	0x0000:  0100 5e00 0016 001c 4281 9c68 0800 4600
	0x0010:  0028 6c42 0000 0102 969d 0ad3 3707 e000
	0x0020:  0016 9404 0000 2200 f901 0000 0001 0400
	0x0030:  0000 e000 00fc
16:30:41.442422 IP 10.211.55.7 > 224.0.0.22: igmp
	0x0000:  0100 5e00 0016 001c 4281 9c68 0800 4600
	0x0010:  0028 6c42 0000 0102 969d 0ad3 3707 e000
	0x0020:  0016 9404 0000 2200 f901 0000 0001 0400
	0x0030:  0000 e000 00fc
16:30:41.442576 IP6 fe80::c05f:2278:4010:39e8 > ff02::16: HBH ICMP6, multicast listener report v2, 1 group record(s), length 28
	0x0000:  3333 0000 0016 001c 4281 9c68 86dd 6000
	0x0010:  0000 0024 0001 fe80 0000 0000 0000 c05f
	0x0020:  2278 4010 39e8 ff02 0000 0000 0000 0000
	0x0030:  0000 0000 0016 3a00 0502 0000 0100 8f00
	0x0040:  1337 0000 0001 0400 0000 ff02 0000 0000
	0x0050:  0000 0000 0000 0001 0003
16:30:41.442592 IP6 fe80::c05f:2278:4010:39e8 > ff02::16: HBH ICMP6, multicast listener report v2, 1 group record(s), length 28
	0x0000:  3333 0000 0016 001c 4281 9c68 86dd 6000
	0x0010:  0000 0024 0001 fe80 0000 0000 0000 c05f
	0x0020:  2278 4010 39e8 ff02 0000 0000 0000 0000
	0x0030:  0000 0000 0016 3a00 0502 0000 0100 8f00
	0x0040:  1337 0000 0001 0400 0000 ff02 0000 0000
	0x0050:  0000 0000 0000 0001 0003
16:30:41.802027 IP6 fe80::c05f:2278:4010:39e8.52993 > ff02::1:3.5355: UDP, length 33
	0x0000:  3333 0001 0003 001c 4281 9c68 86dd 6000
	0x0010:  0000 0029 1101 fe80 0000 0000 0000 c05f
	0x0020:  2278 4010 39e8 ff02 0000 0000 0000 0000
	0x0030:  0000 0001 0003 cf01 14eb 0029 c24d 16ac
	0x0040:  0000 0001 0000 0000 0000 0f44 4553 4b54
	0x0050:  4f50 2d4f 4334 3856 5046 0000 ff00 01
16:30:41.802040 IP6 fe80::c05f:2278:4010:39e8.52993 > ff02::1:3.5355: UDP, length 33
	0x0000:  3333 0001 0003 001c 4281 9c68 86dd 6000
	0x0010:  0000 0029 1101 fe80 0000 0000 0000 c05f
	0x0020:  2278 4010 39e8 ff02 0000 0000 0000 0000
	0x0030:  0000 0001 0003 cf01 14eb 0029 c24d 16ac
	0x0040:  0000 0001 0000 0000 0000 0f44 4553 4b54
	0x0050:  4f50 2d4f 4334 3856 5046 0000 ff00 01
16:30:41.802269 IP 10.211.55.7.52993 > 224.0.0.252.5355: UDP, length 33
	0x0000:  0100 5e00 00fc 001c 4281 9c68 0800 4500
	0x0010:  003d 5062 0000 0111 4678 0ad3 3707 e000
	0x0020:  00fc cf01 14eb 0029 f9ce 16ac 0000 0001
	0x0030:  0000 0000 0000 0f44 4553 4b54 4f50 2d4f
	0x0040:  4334 3856 5046 0000 ff00 01
16:30:41.802284 IP 10.211.55.7.52993 > 224.0.0.252.5355: UDP, length 33
	0x0000:  0100 5e00 00fc 001c 4281 9c68 0800 4500
	0x0010:  003d 5062 0000 0111 4678 0ad3 3707 e000
	0x0020:  00fc cf01 14eb 0029 f9ce 16ac 0000 0001
	0x0030:  0000 0000 0000 0f44 4553 4b54 4f50 2d4f
	0x0040:  4334 3856 5046 0000 ff00 01
16:30:41.802363 IP 192.168.1.5.52512 > 224.0.0.252.5355: UDP, length 33
	0x0000:  0100 5e00 00fc 784f 434c 5365 0800 4500
	0x0010:  003d cb6f 0000 0111 4b97 c0a8 0105 e000
	0x0020:  00fc cd20 14eb 0029 7bdc 16ac 0000 0001
	0x0030:  0000 0000 0000 0f44 4553 4b54 4f50 2d4f
	0x0040:  4334 3856 5046 0000 ff00 01
16:30:42.792647 IP 192.168.1.6.52527 > 239.255.255.250.1900: UDP, length 167
	0x0000:  0100 5e7f fffa fc18 3c40 0c75 0800 4500
	0x0010:  00c3 e504 0000 0111 227d c0a8 0106 efff
	0x0020:  fffa cd2f 076c 00af 5cc0 4d2d 5345 4152
	0x0030:  4348 202a 2048 5454 502f 312e 310d 0a48
	0x0040:  4f53 543a 2032 3339 2e32 3535 2e32 3535
	0x0050:  2e32 3530 3a31 3930 300d 0a4d 414e 3a20
	0x0060:  2273 7364 703a 6469 7363 6f76 6572 220d
	0x0070:  0a4d 583a 2033 0d0a 5354 3a20 7572 6e3a
	0x0080:  7363 6865 6d61 732d 7570 6e70 2d6f 7267
	0x0090:  3a73 6572 7669 6365 3a41 5654 7261 6e73
	0x00a0:  706f 7274 3a31 0d0a 5553 4552 2d41 4745
	0x00b0:  4e54 3a20 694f 5320 5550 6e50 2f31 2e31
	0x00c0:  2042 494c 4942 494c 492f 312e 300d 0a0d
	0x00d0:  0a
16:30:44.840806 IP 192.168.1.6.52527 > 239.255.255.250.1900: UDP, length 167
	0x0000:  0100 5e7f fffa fc18 3c40 0c75 0800 4500
	0x0010:  00c3 ae1d 0000 0111 5964 c0a8 0106 efff
	0x0020:  fffa cd2f 076c 00af 5cc0 4d2d 5345 4152
	0x0030:  4348 202a 2048 5454 502f 312e 310d 0a48
	0x0040:  4f53 543a 2032 3339 2e32 3535 2e32 3535
	0x0050:  2e32 3530 3a31 3930 300d 0a4d 414e 3a20
	0x0060:  2273 7364 703a 6469 7363 6f76 6572 220d
	0x0070:  0a4d 583a 2033 0d0a 5354 3a20 7572 6e3a
	0x0080:  7363 6865 6d61 732d 7570 6e70 2d6f 7267
	0x0090:  3a73 6572 7669 6365 3a41 5654 7261 6e73
	0x00a0:  706f 7274 3a31 0d0a 5553 4552 2d41 4745
	0x00b0:  4e54 3a20 694f 5320 5550 6e50 2f31 2e31
	0x00c0:  2042 494c 4942 494c 492f 312e 300d 0a0d
	0x00d0:  0a
16:30:46.786230 IP 192.168.1.6.52527 > 239.255.255.250.1900: UDP, length 167
	0x0000:  0100 5e7f fffa fc18 3c40 0c75 0800 4500
	0x0010:  00c3 9d25 0000 0111 6a5c c0a8 0106 efff
	0x0020:  fffa cd2f 076c 00af 5cc0 4d2d 5345 4152
	0x0030:  4348 202a 2048 5454 502f 312e 310d 0a48
	0x0040:  4f53 543a 2032 3339 2e32 3535 2e32 3535
	0x0050:  2e32 3530 3a31 3930 300d 0a4d 414e 3a20
	0x0060:  2273 7364 703a 6469 7363 6f76 6572 220d
	0x0070:  0a4d 583a 2033 0d0a 5354 3a20 7572 6e3a
	0x0080:  7363 6865 6d61 732d 7570 6e70 2d6f 7267
	0x0090:  3a73 6572 7669 6365 3a41 5654 7261 6e73
	0x00a0:  706f 7274 3a31 0d0a 5553 4552 2d41 4745
	0x00b0:  4e54 3a20 694f 5320 5550 6e50 2f31 2e31
	0x00c0:  2042 494c 4942 494c 492f 312e 300d 0a0d
	0x00d0:  0a
16:30:46.834272 IP 192.168.1.5.56667 > 223.252.199.69.6003: tcp 135
	0x0000:  0c2a 8601 4f46 784f 434c 5365 0800 4500
	0x0010:  00bb 0000 4000 4006 d14d c0a8 0105 dffc
	0x0020:  c745 dd5b 1773 41e2 088d 4c0a 2c35 8018
	0x0030:  0800 77e5 0000 0101 080a 0d8c 9639 5360
	0x0040:  3604 81fe 007f a4d9 80b1 97e3 ba8b dffb
	0x0050:  e9d5 86e3 b09d 86ab efc4 d0bc a28b 86ae
	0x0060:  e5d3 89ba efdf cabc e3c5 cbab aedc c1aa
	0x0070:  f3d0 c3bc c8d0 cabd ecd4 d6f7 e8d4 c5ab
	0x0080:  f4d3 c1b8 f493 88fb edc2 c3fb baca 86bf
	0x0090:  ecd0 c3fb ba93 cbb7 ecd8 cabc a29d 86bd
	0x00a0:  efdc c5b0 ee93 9efb edc4 d7b0 e39f 95ef
	0x00b0:  b39f c7b6 ed93 88fb f5c2 c1ab a28b 95e9
	0x00c0:  b781 95ee b080 96a4 fd
16:30:46.871702 IP 223.252.199.69.6003 > 192.168.1.5.56667: tcp 0
	0x0000:  784f 434c 5365 0c2a 8601 4f46 0800 4500
	0x0010:  0034 3e07 4000 3806 9bcd dffc c745 c0a8
	0x0020:  0105 1773 dd5b 4c0a 2c35 41e2 0914 8010
	0x0030:  016b e2a9 0000 0101 080a 5360 7a8e 0d8c
	0x0040:  9639
16:30:48.834469 IP 192.168.1.6.52527 > 239.255.255.250.1900: UDP, length 167
	0x0000:  0100 5e7f fffa fc18 3c40 0c75 0800 4500
	0x0010:  00c3 bda7 0000 0111 49da c0a8 0106 efff
	0x0020:  fffa cd2f 076c 00af 5cc0 4d2d 5345 4152
	0x0030:  4348 202a 2048 5454 502f 312e 310d 0a48
	0x0040:  4f53 543a 2032 3339 2e32 3535 2e32 3535
	0x0050:  2e32 3530 3a31 3930 300d 0a4d 414e 3a20
	0x0060:  2273 7364 703a 6469 7363 6f76 6572 220d
	0x0070:  0a4d 583a 2033 0d0a 5354 3a20 7572 6e3a
	0x0080:  7363 6865 6d61 732d 7570 6e70 2d6f 7267
	0x0090:  3a73 6572 7669 6365 3a41 5654 7261 6e73
	0x00a0:  706f 7274 3a31 0d0a 5553 4552 2d41 4745
	0x00b0:  4e54 3a20 694f 5320 5550 6e50 2f31 2e31
	0x00c0:  2042 494c 4942 494c 492f 312e 300d 0a0d
	0x00d0:  0a
16:30:48.837715 IP 125.39.133.143.8080 > 192.168.1.5.63980: tcp 183
	0x0000:  784f 434c 5365 0c2a 8601 4f46 0800 4500
	0x0010:  00df 86ca 4000 3706 f7ea 7d27 858f c0a8
	0x0020:  0105 1f90 f9ec b287 a8db a705 7c5f 5018
	0x0030:  00fb 5efa 0000 0000 00b7 0000 000d 0100
	0x0040:  0000 000d 3335 3138 3032 3534 33b3 65d2
	0x0050:  7638 45de dc2c da9e f531 8ca1 cfc5 0e86
	0x0060:  49b8 1e35 1b18 43cf 0276 00cb 5171 f017
	0x0070:  1f2e f8c2 554b 7ec4 052b c763 d8ec 8493
	0x0080:  7ec2 8186 cc81 339f 8235 1c2a 8b20 65ee
	0x0090:  728f bb12 01de f547 a024 11a6 2965 01cf
	0x00a0:  2792 dd4e a5d9 cbac ac12 a20b 0833 e94d
	0x00b0:  d0e6 acb1 d526 8e36 f616 ce80 844e 3e39
	0x00c0:  817d 7e11 b020 4dee 1a2a 6315 0ca5 8d93
	0x00d0:  9f9a b18c 5c63 86bf 896e 4d2a bcec 10f1
	0x00e0:  9a8f e822 b29c 798f 39c3 d166 41
16:30:48.837764 IP 192.168.1.5.63980 > 125.39.133.143.8080: tcp 0
	0x0000:  0c2a 8601 4f46 784f 434c 5365 0800 4500
	0x0010:  0028 0000 4000 4006 766c c0a8 0105 7d27
	0x0020:  858f f9ec 1f90 a705 7c5f b287 a992 5010
	0x0030:  0ffd 4277 0000
16:30:50.166634 IP 223.252.199.69.6003 > 192.168.1.5.56667: tcp 5
	0x0000:  784f 434c 5365 0c2a 8601 4f46 0800 4500
	0x0010:  0039 3e08 4000 3806 9bc7 dffc c745 c0a8
	0x0020:  0105 1773 dd5b 4c0a 2c35 41e2 0914 8018
	0x0030:  016b f237 0000 0101 080a 5360 7db5 0d8c
	0x0040:  9639 8103 323a 3a
16:30:50.166684 IP 192.168.1.5.56667 > 223.252.199.69.6003: tcp 0
	0x0000:  0c2a 8601 4f46 784f 434c 5365 0800 4500
	0x0010:  0034 0000 4000 4006 d1d4 c0a8 0105 dffc
	0x0020:  c745 dd5b 1773 41e2 0914 4c0a 2c3a 8010
	0x0030:  07ff cbf4 0000 0101 080a 0d8c a32e 5360
	0x0040:  7db5
16:30:50.168055 IP 192.168.1.5.56667 > 223.252.199.69.6003: tcp 9
	0x0000:  0c2a 8601 4f46 784f 434c 5365 0800 4500
	0x0010:  003d 0000 4000 4006 d1cb c0a8 0105 dffc
	0x0020:  c745 dd5b 1773 41e2 0914 4c0a 2c3a 8018
	0x0030:  0800 3afd 0000 0101 080a 0d8c a32f 5360
	0x0040:  7db5 8183 ec45 359b de7f 0f
16:30:50.201696 IP 223.252.199.69.6003 > 192.168.1.5.56667: tcp 0
	0x0000:  784f 434c 5365 0c2a 8601 4f46 0800 4500
	0x0010:  0034 3e09 4000 3806 9bcb dffc c745 c0a8
	0x0020:  0105 1773 dd5b 4c0a 2c3a 41e2 091d 8010
	0x0030:  016b d265 0000 0101 080a 5360 7dce 0d8c
	0x0040:  a32f
16:30:50.780114 IP 192.168.1.6.52527 > 239.255.255.250.1900: UDP, length 167
	0x0000:  0100 5e7f fffa fc18 3c40 0c75 0800 4500
	0x0010:  00c3 ab8c 0000 0111 5bf5 c0a8 0106 efff
	0x0020:  fffa cd2f 076c 00af 5cc0 4d2d 5345 4152
	0x0030:  4348 202a 2048 5454 502f 312e 310d 0a48
	0x0040:  4f53 543a 2032 3339 2e32 3535 2e32 3535
	0x0050:  2e32 3530 3a31 3930 300d 0a4d 414e 3a20
	0x0060:  2273 7364 703a 6469 7363 6f76 6572 220d
	0x0070:  0a4d 583a 2033 0d0a 5354 3a20 7572 6e3a
	0x0080:  7363 6865 6d61 732d 7570 6e70 2d6f 7267
	0x0090:  3a73 6572 7669 6365 3a41 5654 7261 6e73
	0x00a0:  706f 7274 3a31 0d0a 5553 4552 2d41 4745
	0x00b0:  4e54 3a20 694f 5320 5550 6e50 2f31 2e31
	0x00c0:  2042 494c 4942 494c 492f 312e 300d 0a0d
	0x00d0:  0a
16:30:51.495810 IP6 fe80::8d79:e4cd:ed42:574c > ff02::1:ff00:1: ICMP6, neighbor solicitation, who has fe80::1, length 32
	0x0000:  3333 ff00 0001 144f 8aca 4d29 86dd 6000
	0x0010:  0000 0020 3aff fe80 0000 0000 0000 8d79
	0x0020:  e4cd ed42 574c ff02 0000 0000 0000 0000
	0x0030:  0001 ff00 0001 8700 d981 0000 0000 fe80
	0x0040:  0000 0000 0000 0000 0000 0000 0001 0101
	0x0050:  144f 8aca 4d29
16:30:52.213382 IP 192.168.1.2.56298 > 239.255.255.250.1900: UDP, length 137
	0x0000:  0100 5e7f fffa 144f 8aca 4d29 0800 4500
	0x0010:  00a5 2c20 0000 0411 d883 c0a8 0102 efff
	0x0020:  fffa dbea 076c 0091 77b2 4d2d 5345 4152
	0x0030:  4348 202a 2048 5454 502f 312e 310d 0a48
	0x0040:  6f73 743a 2032 3339 2e32 3535 2e32 3535
	0x0050:  2e32 3530 3a31 3930 300d 0a53 543a 2075
	0x0060:  726e 3a73 6368 656d 6173 2d75 706e 702d
	0x0070:  6f72 673a 6465 7669 6365 3a49 6e74 6572
	0x0080:  6e65 7447 6174 6577 6179 4465 7669 6365
	0x0090:  3a31 0d0a 4d61 6e3a 2022 7373 6470 3a64
	0x00a0:  6973 636f 7665 7222 0d0a 4d58 3a20 330d
	0x00b0:  0a0d 0a
16:30:52.828072 IP 192.168.1.6.52527 > 239.255.255.250.1900: UDP, length 167
	0x0000:  0100 5e7f fffa fc18 3c40 0c75 0800 4500
	0x0010:  00c3 494b 0000 0111 be36 c0a8 0106 efff
	0x0020:  fffa cd2f 076c 00af 5cc0 4d2d 5345 4152
	0x0030:  4348 202a 2048 5454 502f 312e 310d 0a48
	0x0040:  4f53 543a 2032 3339 2e32 3535 2e32 3535
	0x0050:  2e32 3530 3a31 3930 300d 0a4d 414e 3a20
	0x0060:  2273 7364 703a 6469 7363 6f76 6572 220d
	0x0070:  0a4d 583a 2033 0d0a 5354 3a20 7572 6e3a
	0x0080:  7363 6865 6d61 732d 7570 6e70 2d6f 7267
	0x0090:  3a73 6572 7669 6365 3a41 5654 7261 6e73
	0x00a0:  706f 7274 3a31 0d0a 5553 4552 2d41 4745
	0x00b0:  4e54 3a20 694f 5320 5550 6e50 2f31 2e31
	0x00c0:  2042 494c 4942 494c 492f 312e 300d 0a0d
	0x00d0:  0a
16:30:54.773576 IP 192.168.1.6.52527 > 239.255.255.250.1900: UDP, length 167
	0x0000:  0100 5e7f fffa fc18 3c40 0c75 0800 4500
	0x0010:  00c3 e455 0000 0111 232c c0a8 0106 efff
	0x0020:  fffa cd2f 076c 00af 5cc0 4d2d 5345 4152
	0x0030:  4348 202a 2048 5454 502f 312e 310d 0a48
	0x0040:  4f53 543a 2032 3339 2e32 3535 2e32 3535
	0x0050:  2e32 3530 3a31 3930 300d 0a4d 414e 3a20
	0x0060:  2273 7364 703a 6469 7363 6f76 6572 220d
	0x0070:  0a4d 583a 2033 0d0a 5354 3a20 7572 6e3a
	0x0080:  7363 6865 6d61 732d 7570 6e70 2d6f 7267
	0x0090:  3a73 6572 7669 6365 3a41 5654 7261 6e73
	0x00a0:  706f 7274 3a31 0d0a 5553 4552 2d41 4745
	0x00b0:  4e54 3a20 694f 5320 5550 6e50 2f31 2e31
	0x00c0:  2042 494c 4942 494c 492f 312e 300d 0a0d
	0x00d0:  0a
16:30:55.183124 IP 192.168.1.2.56298 > 239.255.255.250.1900: UDP, length 137
	0x0000:  0100 5e7f fffa 144f 8aca 4d29 0800 4500
	0x0010:  00a5 2c21 0000 0411 d882 c0a8 0102 efff
	0x0020:  fffa dbea 076c 0091 77b2 4d2d 5345 4152
	0x0030:  4348 202a 2048 5454 502f 312e 310d 0a48
	0x0040:  6f73 743a 2032 3339 2e32 3535 2e32 3535
	0x0050:  2e32 3530 3a31 3930 300d 0a53 543a 2075
	0x0060:  726e 3a73 6368 656d 6173 2d75 706e 702d
	0x0070:  6f72 673a 6465 7669 6365 3a49 6e74 6572
	0x0080:  6e65 7447 6174 6577 6179 4465 7669 6365
	0x0090:  3a31 0d0a 4d61 6e3a 2022 7373 6470 3a64
	0x00a0:  6973 636f 7665 7222 0d0a 4d58 3a20 330d
	0x00b0:  0a0d 0a
16:30:56.823977 IP 192.168.1.6.52527 > 239.255.255.250.1900: UDP, length 167
	0x0000:  0100 5e7f fffa fc18 3c40 0c75 0800 4500
	0x0010:  00c3 a3f8 0000 0111 6389 c0a8 0106 efff
	0x0020:  fffa cd2f 076c 00af 5cc0 4d2d 5345 4152
	0x0030:  4348 202a 2048 5454 502f 312e 310d 0a48
	0x0040:  4f53 543a 2032 3339 2e32 3535 2e32 3535
	0x0050:  2e32 3530 3a31 3930 300d 0a4d 414e 3a20
	0x0060:  2273 7364 703a 6469 7363 6f76 6572 220d
	0x0070:  0a4d 583a 2033 0d0a 5354 3a20 7572 6e3a
	0x0080:  7363 6865 6d61 732d 7570 6e70 2d6f 7267
	0x0090:  3a73 6572 7669 6365 3a41 5654 7261 6e73
	0x00a0:  706f 7274 3a31 0d0a 5553 4552 2d41 4745
	0x00b0:  4e54 3a20 694f 5320 5550 6e50 2f31 2e31
	0x00c0:  2042 494c 4942 494c 492f 312e 300d 0a0d
	0x00d0:  0a
16:30:58.254989 IP 192.168.1.2.56298 > 239.255.255.250.1900: UDP, length 137
	0x0000:  0100 5e7f fffa 144f 8aca 4d29 0800 4500
	0x0010:  00a5 2c22 0000 0411 d881 c0a8 0102 efff
	0x0020:  fffa dbea 076c 0091 77b2 4d2d 5345 4152
	0x0030:  4348 202a 2048 5454 502f 312e 310d 0a48
	0x0040:  6f73 743a 2032 3339 2e32 3535 2e32 3535
	0x0050:  2e32 3530 3a31 3930 300d 0a53 543a 2075
	0x0060:  726e 3a73 6368 656d 6173 2d75 706e 702d
	0x0070:  6f72 673a 6465 7669 6365 3a49 6e74 6572
	0x0080:  6e65 7447 6174 6577 6179 4465 7669 6365
	0x0090:  3a31 0d0a 4d61 6e3a 2022 7373 6470 3a64
	0x00a0:  6973 636f 7665 7222 0d0a 4d58 3a20 330d
	0x00b0:  0a0d 0a
16:30:58.770983 IP 192.168.1.6.52527 > 239.255.255.250.1900: UDP, length 167
	0x0000:  0100 5e7f fffa fc18 3c40 0c75 0800 4500
	0x0010:  00c3 efbf 0000 0111 17c2 c0a8 0106 efff
	0x0020:  fffa cd2f 076c 00af 5cc0 4d2d 5345 4152
	0x0030:  4348 202a 2048 5454 502f 312e 310d 0a48
	0x0040:  4f53 543a 2032 3339 2e32 3535 2e32 3535
	0x0050:  2e32 3530 3a31 3930 300d 0a4d 414e 3a20
	0x0060:  2273 7364 703a 6469 7363 6f76 6572 220d
	0x0070:  0a4d 583a 2033 0d0a 5354 3a20 7572 6e3a
	0x0080:  7363 6865 6d61 732d 7570 6e70 2d6f 7267
	0x0090:  3a73 6572 7669 6365 3a41 5654 7261 6e73
	0x00a0:  706f 7274 3a31 0d0a 5553 4552 2d41 4745
	0x00b0:  4e54 3a20 694f 5320 5550 6e50 2f31 2e31
	0x00c0:  2042 494c 4942 494c 492f 312e 300d 0a0d
	0x00d0:  0a
16:30:59.386119 IP 125.39.133.143.8080 > 192.168.1.5.63980: tcp 183
	0x0000:  784f 434c 5365 0c2a 8601 4f46 0800 4500
	0x0010:  00df 86cb 4000 3706 f7e9 7d27 858f c0a8
	0x0020:  0105 1f90 f9ec b287 a992 a705 7c5f 5018
	0x0030:  00fb 9416 0000 0000 00b7 0000 000d 0100
	0x0040:  0000 000d 3335 3138 3032 3534 334b 40df
	0x0050:  8488 ddb5 99c2 f287 cff8 a89c a54a 81ae
	0x0060:  2a98 756d 15cf 275d 218a 0657 0180 7321
	0x0070:  fc1d ad9a fedd 4fd2 4535 b0a9 d569 8f2c
	0x0080:  6457 e35e 2dc4 f740 c495 f53b 924c a6f1
	0x0090:  7d7a 4612 7169 1600 3b86 f30a 7ad2 7658
	0x00a0:  3c97 9eb8 8dcd 22fa 940f f4f4 2cc8 2b08
	0x00b0:  feae 42e9 abf6 113f 6203 9aef f68a a1de
	0x00c0:  0617 fea6 0d14 37f2 4376 11ac 513d 1210
	0x00d0:  2337 31b5 1c72 0d04 f5ed f50a f804 afd2
	0x00e0:  c87f a97e e703 c950 bdaf 032b 60
16:30:59.386175 IP 192.168.1.5.63980 > 125.39.133.143.8080: tcp 0
	0x0000:  0c2a 8601 4f46 784f 434c 5365 0800 4500
	0x0010:  0028 0000 4000 4006 766c c0a8 0105 7d27
	0x0020:  858f f9ec 1f90 a705 7c5f b287 aa49 5010
	0x0030:  0ffd 41c0 0000
16:31:00.406183 IP 104.238.138.91.38388 > 192.168.1.5.61723: tcp 53
	0x0000:  784f 434c 5365 0c2a 8601 4f46 0800 4500
	0x0010:  0069 f69a 4000 3406 9afd 68ee 8a5b c0a8
	0x0020:  0105 95f4 f11b 2faf bc41 9b9f ffd3 8018
	0x0030:  0139 e37c 0000 0101 080a 910f 2c8a 0d8c
	0x0040:  5f08 1d8b c107 b9bd b63a 1f3a fe06 cdca
	0x0050:  bceb b033 7bee 1aac f811 8380 c4b5 009e
	0x0060:  110b 45cf 9b5c d7c1 3cf6 1a77 b836 7293
	0x0070:  b688 da0a a434 a5
16:31:00.406233 IP 192.168.1.5.61723 > 104.238.138.91.38388: tcp 0
	0x0000:  0c2a 8601 4f46 784f 434c 5365 0800 4500
	0x0010:  0034 0000 4000 4006 85cd c0a8 0105 68ee
	0x0020:  8a5b f11b 95f4 9b9f ffd3 2faf bc76 8010
	0x0030:  07ff 14e9 0000 0101 080a 0d8c cb0e 910f
	0x0040:  2c8a
16:31:00.815202 IP 192.168.1.6.52527 > 239.255.255.250.1900: UDP, length 167
	0x0000:  0100 5e7f fffa fc18 3c40 0c75 0800 4500
	0x0010:  00c3 23cc 0000 0111 e3b5 c0a8 0106 efff
	0x0020:  fffa cd2f 076c 00af 5cc0 4d2d 5345 4152
	0x0030:  4348 202a 2048 5454 502f 312e 310d 0a48
	0x0040:  4f53 543a 2032 3339 2e32 3535 2e32 3535
	0x0050:  2e32 3530 3a31 3930 300d 0a4d 414e 3a20
	0x0060:  2273 7364 703a 6469 7363 6f76 6572 220d
	0x0070:  0a4d 583a 2033 0d0a 5354 3a20 7572 6e3a
	0x0080:  7363 6865 6d61 732d 7570 6e70 2d6f 7267
	0x0090:  3a73 6572 7669 6365 3a41 5654 7261 6e73
	0x00a0:  706f 7274 3a31 0d0a 5553 4552 2d41 4745
	0x00b0:  4e54 3a20 694f 5320 5550 6e50 2f31 2e31
	0x00c0:  2042 494c 4942 494c 492f 312e 300d 0a0d
	0x00d0:  0a
16:31:02.762213 IP 192.168.1.6.52527 > 239.255.255.250.1900: UDP, length 167
	0x0000:  0100 5e7f fffa fc18 3c40 0c75 0800 4500
	0x0010:  00c3 ab19 0000 0111 5c68 c0a8 0106 efff
	0x0020:  fffa cd2f 076c 00af 5cc0 4d2d 5345 4152
	0x0030:  4348 202a 2048 5454 502f 312e 310d 0a48
	0x0040:  4f53 543a 2032 3339 2e32 3535 2e32 3535
	0x0050:  2e32 3530 3a31 3930 300d 0a4d 414e 3a20
	0x0060:  2273 7364 703a 6469 7363 6f76 6572 220d
	0x0070:  0a4d 583a 2033 0d0a 5354 3a20 7572 6e3a
	0x0080:  7363 6865 6d61 732d 7570 6e70 2d6f 7267
	0x0090:  3a73 6572 7669 6365 3a41 5654 7261 6e73
	0x00a0:  706f 7274 3a31 0d0a 5553 4552 2d41 4745
	0x00b0:  4e54 3a20 694f 5320 5550 6e50 2f31 2e31
	0x00c0:  2042 494c 4942 494c 492f 312e 300d 0a0d
	0x00d0:  0a
16:31:04.808710 IP 192.168.1.6.52527 > 239.255.255.250.1900: UDP, length 167
	0x0000:  0100 5e7f fffa fc18 3c40 0c75 0800 4500
	0x0010:  00c3 7ee8 0000 0111 8899 c0a8 0106 efff
	0x0020:  fffa cd2f 076c 00af 5cc0 4d2d 5345 4152
	0x0030:  4348 202a 2048 5454 502f 312e 310d 0a48
	0x0040:  4f53 543a 2032 3339 2e32 3535 2e32 3535
	0x0050:  2e32 3530 3a31 3930 300d 0a4d 414e 3a20
	0x0060:  2273 7364 703a 6469 7363 6f76 6572 220d
	0x0070:  0a4d 583a 2033 0d0a 5354 3a20 7572 6e3a
	0x0080:  7363 6865 6d61 732d 7570 6e70 2d6f 7267
	0x0090:  3a73 6572 7669 6365 3a41 5654 7261 6e73
	0x00a0:  706f 7274 3a31 0d0a 5553 4552 2d41 4745
	0x00b0:  4e54 3a20 694f 5320 5550 6e50 2f31 2e31
	0x00c0:  2042 494c 4942 494c 492f 312e 300d 0a0d
	0x00d0:  0a
16:31:06.754294 IP 192.168.1.6.52527 > 239.255.255.250.1900: UDP, length 167
	0x0000:  0100 5e7f fffa fc18 3c40 0c75 0800 4500
	0x0010:  00c3 6733 0000 0111 a04e c0a8 0106 efff
	0x0020:  fffa cd2f 076c 00af 5cc0 4d2d 5345 4152
	0x0030:  4348 202a 2048 5454 502f 312e 310d 0a48
	0x0040:  4f53 543a 2032 3339 2e32 3535 2e32 3535
	0x0050:  2e32 3530 3a31 3930 300d 0a4d 414e 3a20
	0x0060:  2273 7364 703a 6469 7363 6f76 6572 220d
	0x0070:  0a4d 583a 2033 0d0a 5354 3a20 7572 6e3a
	0x0080:  7363 6865 6d61 732d 7570 6e70 2d6f 7267
	0x0090:  3a73 6572 7669 6365 3a41 5654 7261 6e73
	0x00a0:  706f 7274 3a31 0d0a 5553 4552 2d41 4745
	0x00b0:  4e54 3a20 694f 5320 5550 6e50 2f31 2e31
	0x00c0:  2042 494c 4942 494c 492f 312e 300d 0a0d
	0x00d0:  0a
16:31:08.802476 IP 192.168.1.6.52527 > 239.255.255.250.1900: UDP, length 167
	0x0000:  0100 5e7f fffa fc18 3c40 0c75 0800 4500
	0x0010:  00c3 4620 0000 0111 c161 c0a8 0106 efff
	0x0020:  fffa cd2f 076c 00af 5cc0 4d2d 5345 4152
	0x0030:  4348 202a 2048 5454 502f 312e 310d 0a48
	0x0040:  4f53 543a 2032 3339 2e32 3535 2e32 3535
	0x0050:  2e32 3530 3a31 3930 300d 0a4d 414e 3a20
	0x0060:  2273 7364 703a 6469 7363 6f76 6572 220d
	0x0070:  0a4d 583a 2033 0d0a 5354 3a20 7572 6e3a
	0x0080:  7363 6865 6d61 732d 7570 6e70 2d6f 7267
	0x0090:  3a73 6572 7669 6365 3a41 5654 7261 6e73
	0x00a0:  706f 7274 3a31 0d0a 5553 4552 2d41 4745
	0x00b0:  4e54 3a20 694f 5320 5550 6e50 2f31 2e31
	0x00c0:  2042 494c 4942 494c 492f 312e 300d 0a0d
	0x00d0:  0a

